S0030000FC
S35100000000FFFB002051210000DD050000DD050000DD050000DD050000DD0500000000000000000000000000000000000061040000DD050000000000002B050000DD050000DD050000DD050000DD050000B9
S3510000004CDD050000DD050000DD050000DD050000DD050000DD050000DD050000DD050000DD050000DD050000DD050000DD050000DD050000DD050000DD050000DD050000DD050000DD050000DD0500009C
S35100000098DD050000DD050000DD050000DD050000DD050000DD050000DD050000DD050000DD050000DD050000DD050000DD050000DD050000DD050000DD050000DD050000DD050000DD050000DD05000050
S351000000E4DD050000DD050000DD050000DD050000DD050000DD050000DD050000DD050000DD050000DD050000DD050000DD050000DD050000DD050000DD050000DD050000DD050000DD050000DD05000004
S35100000130DD050000DD050000DD050000DD050000DD050000DD050000DD050000DD050000DD050000DD050000DD050000DD050000DD050000DD050000DD050000DD050000DD050000DD050000DD050000B7
S3510000017CDD050000DD050000DD050000DD050000DD050000DD050000DD050000DD050000DD050000DD050000DD050000DD050000DD050000DD050000DD050000DD050000DD050000DD050000DD0500006B
S351000001C8DD050000DD050000DD050000DD050000DD050000DD050000DD050000DD050000DD050000DD050000DD050000DD050000DD050000DD050000DD050000DD050000DD050000DD050000DD0500001F
S35100000214DD050000DD050000DD050000DD050000DD050000DD050000DD050000DD050000DD050000DD050000DD050000DD050000DD050000DD050000DD050000DD050000DD050000DD050000DD050000D2
S35100000260DD050000DD050000DD050000DD050000DD050000DD050000DD050000DD050000DD050000DD050000DD050000DD050000DD050000DD050000DD050000DD050000DD050000DD050000DD05000086
S351000002ACDD050000DD050000DD050000DD050000DD050000DD050000DD050000DD050000DD050000DD050000DD050000DD050000DD050000DD050000DD050000DD050000DD050000DD050000DD0500003A
S351000002F8DD050000DD050000DD050000DD050000DD050000DD050000DD050000DD050000DD050000DD050000DD050000DD050000DD050000DD050000DD050000DD050000DD050000DD050000DD050000EE
S35100000344DD050000DD050000DD050000DD050000DD050000DD050000DD050000DD050000DD050000DD050000DD050000DD050000DD050000DD050000DD050000DD050000DD050000DD050000DD050000A1
S35100000390DD050000DD050000DD050000DD050000DD050000DD050000DD050000DD050000DD050000DD050000DD050000DD050000DD050000DD050000DD050000DD050000DD050000DD050000DD05000055
S329000003DCDD050000DD050000DD050000DD050000DD050000DD050000DD050000DD050000DD05000005
S31500000400FFFFFFFFFFFFFFFFFFFFFFFFFEFFFFFFF7
S3510000042001DF704701DFFFF7FEBFDFF85C03D0F8000072B6B0F8181051B9D0F82410D0F81C20D2F81C30994200F0028062B603DF62B6704703DF7047FFF7FEBF02DF704772B61EF0040F0CBFEFF30881D1
S3510000046CEFF30981D1F8181011F8021C032940F008804DF804ED00F03CF85DF804EB00F036B8012940F00680DFF8F002D0F8000000F058B8022940F02A80DFF8E002D0F80000D0F81C10D1F8082042F04C
S351000004B80102C1F808204DF804ED4DF8041DD0F8401011F0010F00F006804DF804ED04F07DFE5DF804EB5DF8041BD1F80420D1F80030C2F80030C3F8042000F004F85DF804EB62B670472DE90740DFF894
S351000005048802D0F8041011F0805F40F00A80EFF31182A2F1100280F82220DFF87012C0F80410BDE8078072B6EFF3098CDFF8601291F80220EFF311832CE9FC4FDFF84402D0F80000D0F81C30C3F814C08F
S3510000055072B6D0F82410D1F800208A4240F01680D1F808105FEA01017FF4F5AF81F31188DFF82012DFF8202281F8022062B6AFF3038072B6D0F82010FFF7E5BFC0F82410C0F81C20B2F82430A0F81A30F6
S3510000059CD2F814C0BCE8FC4F83F311888CF309884DF8041DD0F8401011F0010F00F006804DF804ED04F036FE5DF804EB5DF8041BDFF8BC01DFF8C811C0F8041062B6704772B64DF804EDDFF8A431D3F892
S351000005E80030B3F8181001F10101A3F81810DFF8A8014DF8040DEFF31182EFF30581D3F834002DE90700EFF30880C3F834004FEA0100D3F8401011F0010F00F006802DE90F0004F02FFEBDE80F00D3F83E
S3510000063430200AB900F059B8904200F25680D3F82C20811AC0F25180D3F838204FEAD1014FEA810152F8011009B900F046B8D1F8002042B1824200F00880D1F8101011EA010F7FF4F4AF00F038B8D1F8D2
S351000006800C00D1F8042062B64DF8043D90475DF8043B72B6D3F8401011F0010F00F00880EFF305802DE90F0004F01CFEBDE80F00BDE80700C3F834005DF8040BB3F81810491EA3F81810D3F81C20D2F83F
S351000006CC280010F4805F40F0098039B9D3F82410D1F80010914218BFFFF70BFF62B65DF804FBD3F82820FFF7C8BF72B62DE9F100DFF88830D3F80030D3F834C00CF1100C5CF804EBDFF8900020F001005C
S35100000718CCF818009CE8FF005DF804CBACF1040C2CE9FF00BDE8F0008CF3088862B670472DE9024090F8001011F0800F03BF41F0800180F8001080EA00004FF08000BDE80280EFF309807047EFF3088080
S35100000764704780F308887047EFF30380704762B6704772B670477046704778467047EFF314807047F004FF1F00ED00E00000001020ED00E0FF00000000000008000000008F0600000021DFF804301847F6
S351000007B0B523000070B506460D461446002003F02FFA30462946224601F070FDBDE870407047000070B506460D461446142003F01FFA30462946224601F032FDBDE870407047000010B50023002402E049
S351000007FCC25CA4185B1C8B42FADBE10FC1EB046001EB3064E0B2BDE8104070477CB50546002000AE30701220F070012030715320707100AC033420460321FFF7DDFFB071284621460422FFF7C7FF042825
S3510000084805D0DFF8AE0001F05DFD00204DE0284600A90122FFF7AAFF012805D0DFF8960001F050FD002040E0307806283CD1284600A901310222FFF799FF022805D0DFF87A0001F03FFD00202FE0707838
S35100000894112805D0DFF86A0001F036FD002026E0B07820B3C01C0EF079FB044628B9DFF8560001F029FD002019E02846A11CB278521CFFF775FFB178491C884208D0DFF83A0001F019FD204604F072FF68
S351000008E0002006E070782070B0786070607900E00020BDE87C407047C0460000FF1F2900FF1F4F00FF1F7F00FF1FA100FF1FBD00FF1F00002DE9FE4F824689469046002700AD2F700F6017601220A871DC
S3510000092C0120E871492028720DF1060B58460321FFF75AFF6872504659460422FFF744FF042814D0DFF8900001F0DAFCDFF88C600324504659460422FFF736FF042806D03046394601F0CCFC7F1C641EF3
S35100000978F1DC504600A90122FFF718FF0146012806D0DFF8600001F0BDFC4FF0FF3021E0287806281CD1504600A901310522FFF705FF052806D0DFF8400001F0ABFC4FF0FF300FE06878122802D04FF0D4
S351000009C4FF3009E0E878C9F800002879C8F80000002001E04FF0FF30BDE8FE4F7047C046E600FF1F1A01FF1F5501FF1F8D01FF1F2DE9F04FA1B083468A4617464FF000094FF0FF340026F643002500A84A
S35100000A1080F8009083200EF0C3FA804630B9DFF8640101F073FC0020C043A7E01121017080F801901B2181709AF90010C1709AF901100171B946384615F02EFE3F185BE0B6F1FF3F3CD099F900102C294E
S35100000A5C04D000A801300155641C33E0002300AA0132135526B1701E12D0401E1FD025E0104615F0FDFF01B26A1C681D08F80010551C01F47F400112501D08F8001015E0104615F0EDFF691D6D1C08F88C
S35100000AA801000DE012F9011B681D6D1C08F800105B1CA342F6DB0021681D6D1C08F800104FF0FF340026F64399F90000622804D1002C02DA0126002410E099F90000732804D1002C02DA0026002407E01D
S35100000AF499F90000742803D1002C01DA0226002409F10109B945A1D1504615F0CBFD2818401C88F801004046691DFFF769FE691D08F8010005F10609584641464A46FFF74FFE484509D0DFF84C0001F000
S35100000B40E5FB404604F03EFE4FF0FF3016E0584600A90122FFF72EFE012809D0DFF82C0001F0D4FB404604F02DFE4FF0FF3005E0404604F027FE00A890F9000021B0BDE8F04F7047CD01FF1FEB01FF1FEE
S35100000B8C1602FF1F3EB505460A4600AC2046DFF8181001F067FB2846DFF810102246FFF723FFBDE83E4070473E02FF1F4302FF1F2DE9F84185B007460E46154698460F9815F06CFD1F3004F085FF0446EB
S35100000BD8CDF800800CA9B1F90020019291F90420029291F9081003910F990491DFF8281032462B4601F038FB3846DFF820102246FFF7F4FE0546204604F0D8FD284605B0BDE8F8417047C0465702FF1F1F
S35100000C247402FF1F3EB505468C46134600AC2046DFF81810624601F019FB2846DFF810102246FFF7D5FEBDE83E4070477702FF1F8002FF1F2DE9F84185B007460E46154698460F9815F01EFD1F3004F0B4
S35100000C7037FF0446CDF800800CA9B1F90020019291F90420029291F9081003910F990491DFF8281032462B4601F0EAFA3846DFF820102246FFF7A6FE0546204604F08AFD284605B0BDE8F8417047C04668
S35100000CBC5702FF1F8302FF1FDFF80C10DFF80C20DFF80C301847C0468602FF1F8902FF1FF5090000DFF80C10DFF80C20DFF80C301847C0468A02FF1F8902FF1FF5090000DFF80C10DFF80C20DFF80C3049
S35100000D081847C0468D02FF1F8902FF1FF5090000DFF80C10DFF80C20DFF80C301847C0469002FF1F8902FF1FF509000038B588B005468E46944600930CA8B0F90000019002AC2046DFF81C107246634604
S35100000D5401F08CFA2846DFF814102246FFF748FE08B0BDE8384070474602FF1F9302FF1F3EB505460A4600AC2046DFF8181001F075FA2846DFF810102246FFF731FEBDE83E4070473E02FF1F9602FF1F45
S35100000DA008B58E46944600934C217246634600F019F8BDE8084070473EB505460A4600AC2046DFF8181001F053FA2846DFF810102246FFF70FFEBDE83E4070473E02FF1F9902FF1F2DE9FE438146884606
S35100000DEC17461E4600250A9815F058FC0F3004F071FE04460A990091DFF830103A46334601F030FA5A2101A8017080F801808570484601A92246FFF7E7FD0546204604F0CBFC2846BDE8FE437047C0460F
S35100000E389C02FF1F10B5044630B9DFF81C004FF4E131FFF7ADFC04462046012100F016F82046BDE810407047A902FF1F10B504462046FFF755FF1528FAD02046FFF742FF1528FAD0BDE81040704700000C
S35100000E8438B505464CB228462146FFF793FF1528F9D0BDE83840704710B504462046FFF70FFF1528FAD0BDE81040704710B504462046FFF713FF1528FAD0BDE81040704738B505460C462846216949B2D6
S35100000ED00022FFF7A9FE1528F7D028460121FFF757FE1528F9D0BDE83840704738B505460C46886A02280FD1E06800B200902846216809B26268103A12B2A3681BB2FFF711FF1528F0D00DE0E06800B2FC
S35100000F1C00902846216809B2626812B2A3681BB2FFF702FF1528F1D0BDE838407047000038B505460C462846E16A49B2FFF714FF1528F8D02846216809B2626812B2A369FFF720FF1528F5D0BDE8384046
S35100000F687047000038B584B005460C46606800B20090206940B20190606940B20290A06903902846A16809B2E26812B223681BB2FFF710FE1528E9D0606A012807D02846216949B20022FFF73BFE1528E6
S35100000FB4F7D028460121FFF7E9FD1528F9D004B0BDE838407047000038B584B005460C46606800B20090206940B20190606940B20290A06903902846A16809B2E26812B223681BB2FFF72EFE1528E9D0BD
S35100001000606A012807D02846216949B20022FFF70BFE1528F7D028460121FFF7B9FD1528F9D004B0BDE83840704700002DE9F04180460F4616461D46342004F051FD0446C0F80080476008EB0501816038
S3510000104CB919C160069815F029FB04F043FDA061069915F02DFB07982061089860610998E0610B9860620120A0620A982063012802D1DFF8120001E0DFF80E0020622046BDE8F04170476D0F0000CD0F0F
S35100001098000000002DE9F04180460F4616461D46342004F019FD0446C0F800804760304615F0F6FA226805F1080148431018A06060681E30E060304615F0EAFA04F004FDA061DFF8181021620221A16264
S351000010E4E562314615F0E8FA2046BDE8F04170473D0F000038B505460C46806904F060FB204615F0CFFA04F0E9FCA861214615F0D3FABDE838407047DFF804301847C0464D240000F8B50F46164600258D
S35100001130044605E0384621680A6A90476D1C241DB542F7DBBDE8F840704700002DE9FC4106460D4614460DF1040800AF284641463A46FFF7D7FBB0F1FF3FF7D0019800281CDD2846FFF750FB8046002787
S3510000117C314613E00B689A6A012A0DD11A695B69824201D0834207D12846414656F82720D2699047012004E07F1C091DA742E9DB0020BDE8FC41704770B588B00A21DFF86A0101600221DFF86601016009
S351000011C81421DFF8620101600EF0A6FB014629B1DFF8560101F096F8FFF73CF90121DFF84E01016040F26010CCF2A80005906FF0FF000690002040F26011CCF2A80103AC224608F0BDF8002021460EF0C0
S351000012141BFE014629B1DFF81E0101F075F8FFF71BF940F20111CCF2A801DFF80E01016000200EF0E7FCDFF8060101F065F8002005A90EF0D5FD014631B1DFF8F60001F05BF8FFF701F903E0DFF8EA0065
S3510000126001F054F8002005A90EF0F6FC0598C0B20090DFF8DA00059BC3F30761C3F30742C3F3072301F042F80698C0B20090DFF8C200069BC3F30761C3F30742C3F3072301F034F80798C0B20090DFF8BD
S351000012ACAA00079BC3F30761C3F30742C3F3072301F026F8002001460EF08EFC0446002001460EF089FC0546002001460EF084FC0646002001460EF07FFCC0B20090DFF86E00C4F30761C5F30742C6F3F9
S351000012F8072301F007F803ABD87800901879019058790290DFF84E0019785A789B7800F0F9FF012008B0BDE870407047C046D405FF1F2807FF1FD005FF1FAF02FF1F3C07FF1FE302FF1F1C07FF1F150346
S35100001344FF1F3403FF1F6903FF1F6D03FF1F8C03FF1FAB03FF1FCA03FF1FE903FF1F00002DE9F8430646DFF8DC000168DFF8D8000068814262D0643804D0401E21D0401E3ED05BE000250024DFF8C070E3
S35100001390DFF8C090B84611E0D8F80000806A012803D130463959FFF78DFD3046D8F80010FFF79CFD6D1C08F10408241DD9F800008542E9DB3CE000250024DFF88C70DFF88C90B84611E0D8F80000806AD2
S351000013DC012803D130463959FFF76EFD3046D8F80010FFF77DFD6D1C08F10408241DD9F800008542E9DB1DE000250024DFF85470DFF85490B84611E0D8F80000806A012803D130463959FFF74FFD304666
S35100001428D8F80010FFF75EFD6D1C08F10408241DD9F800008542E9DBBDE8F8437047C046B406FF1FB806FF1F5406FF1F5006FF1F3C06FF1F3806FF1F1406FF1F1006FF1F70B5054600266524DFF840106B
S351000014740C60FFF711FD2846FFF772FF2846FFF7EFFC0122DFF82C0001684A6241684E622946DFF824201268FFF744FEDFF81C0004602846FFF702FDBDE870407047C046B406FF1F3C06FF1F3806FF1F62
S351000014C0B806FF1F70B5054600266424DFF838100C60FFF7E3FC2846FFF744FFDFF82C0001684E62012241684A622946DFF820201268FFF719FEDFF81C0004602846FFF7D7FCBDE870407047B406FF1FC6
S3510000150C5406FF1F5006FF1FB806FF1F2DE9F84183B005460A466624DFF85E6034600DF100084046DFF8561000F09CFEDFF85270386B4146FFF7DAFD3168DFF84A6030688142284611D0FFF7A3FC28464B
S35100001558FFF704FFDFF836002946DFF836201268FFF7DEFD34602846FFF79EFC02E0396BFFF7E0FC03B0BDE8F8417047C046B406FF1F6504FF1F7C06FF1FB806FF1F1406FF1F1006FF1F00002DE9F04788
S351000015A4074600260024FFF777FC3846FFF758FCDFF830013946DFF830211268FFF7B2FD3846FFF773FCDFF824812546DFF820A1C14611E0D9F8000050B158F80400806904F0EEF8D9F8000004F0EAF875
S351000015F0C9F80050761C09F10409241DDAF800008642E9DB00260024DFF8EC802546DFF8ECA0C14611E0D9F8000050B158F80400806904F0CFF8D9F8000004F0CBF8C9F80050761C09F10409241DDAF8FE
S3510000163C00008642E9DB00260024DFF8A0802546DFF89CA0C14611E0D9F8000050B158F80400806904F0B0F8D9F8000004F0ACF8C9F80050761C09F10409241DDAF800008642E9DB00260024DFF87880A3
S351000016882546DFF878A0C14611E0D9F8000050B158F80400806904F091F8D9F8000004F08DF8C9F80050761C09F10409241DDAF800008642E9DB41F2883002F0ADFA3846FFF7E8FB38460021FFF7D8FB5C
S351000016D43846FFF721FD002003F05AF9BDE8F0477047C0463406FF1F3006FF1F5406FF1F5006FF1F3C06FF1F3806FF1F1406FF1F1006FF1F2DE9F04786B0DFF8A05100950B2001900290DFF898A1CDF870
S351000017200CA04FF00009CDE90499002001461E224FF064086423FFF779FCDFF87C412060DFF878710097162001900290DFF870010390CDF8109001260596002023211E226423FFF763FC606078201E210F
S3510000176C2A460323FFF794FCA06078204621DFF848210323FFF78CFCE060DFF840010090212001900290DFF838010390CDF810900596002046211E226423FFF741FC2061DFF8200100902C200190029044
S351000017B8DFF818510395CDF8109005960A20BE211E223223FFF72EFC6061DFF8040100903720019002900395CDF8109005964120BE211E223223FFF71DFCA061DFF8E40000904220019002900395CDF8F8
S35100001804109005967820BE211E223223FFF70CFCE061DFF8C80000904D20019002900395CDF810900596AF20BE211E223223FFF7FBFB2062DFF8A80000905820019002900395CDF810900596E620BE21DD
S351000018501E223223FFF7EAFB606278201E213A460323FFF71BFCA06278204621DFF878200323FFF713FCE06282204621DFF86C200323FFF70BFC2063DFF864000090CDE90188CDE903A9059600205F21F4
S3510000189C1E226423FFF7C4FB606306B0BDE8F0477047C0467104FF1FC51400007C06FF1F7C04FF1F691400008704FF1F9D04FF1FA1150000A204FF1F19150000A404FF1FA704FF1FAA04FF1FAD04FF1F0B
S351000018E8B104FF1FC104FF1FCC04FF1F0A21DFF838000160DFF834100A68DFF8340002604A6842608A688260CA68C2600A6902614A6942618A698261CA69C2610A6A0262496A41627047C0465006FF1F42
S351000019347C06FF1F5406FF1F0521DFF824000160DFF820100A68DFF8200002604A6842608A6A8260CA68C260096901617047C0463806FF1F7C06FF1F3C06FF1F0721DFF82C000160DFF828100A6BDFF8A3
S35100001980280002604A6942608A698260CA69C2600A6A02614A6A4261496B81617047C0461006FF1F7C06FF1F1406FF1F70B5FFF701FC0020FFF742FA0446FFF7A5FEFFF799FFFFF7BBFF0121DFF84600B5
S351000019CC0160DFF84660F16ADFF842000160FFF7C9FF2046FFF740FA6721DFF836000160DFF83200016020460021FFF765FDDFF82A50304621462A68FFF7A2FB4FF4167002F008F9F5E73006FF1F7C06C2
S35100001A18FF1F3406FF1FB806FF1FB406FF1F1C04FF1F00007047000070B58A18521E22F00F060F31A6F1640421F00F01816106614461204664211D4600F010FA002120460160049805996060DFF824008C
S35100001A642064E162686840F0010060644FF08070A0646FF00200A062A1650120BDE870407047C04691410000DFF864000168D1F8A401072884BF0720C1F8A40103D810B90120C1F8A401400100F0E000C6
S35100001AB0C88241F600414FF0000CC023C1F6FF716A20ACEB010213700CF1010C401EF8DC41F680614FF0000C4FF0FF33C1F6FF710420C1EB8C0213600CF1010C401EF8DC7047C046F004FF1F70B5DFF817
S35100001AFC6000056800202862D5F80001841C200103F088FF064608B904201DE0052103F093FDC02111E036607660F481D5F8A4012018072828BFB18103D2400100F0E000B081286AB0602E6210362046A7
S35100001B48641E0028E9D1286A68620020BDE870407047C046F004FF1F2DE9F84F8946DFF8B01004680E684568D6F87C8182462046294642460023002715F010F94FF0FF32101A77EB01003FBFC9F80020D1
S35100001B9440F2E730C9F80400002037D34FF47A7BA4FB0B0104FB071105FB0B114246002315F0F6F84FF47A720023044615F0F0F8C9F8000000FB0BF0201AC9F80400DAF808304FF4FA62A3FB020103FB8C
S35100001BE0071107FB02114246002315F0DBF8D6F88421002315F0D6F8421C41EB07005108D9F8043041EAC0715818C9F804000120BDE8F84F7047C046F004FF1F38B50468D1F800C045684B68B4EB0C044D
S35100001C2C9D41146055608368D1F808C063450AD2DFF820000068D0F884011B18601E65F1000110605160A3EB0C009060BDE838407047C046F004FF1F70B586B00446006803AD0E46294600F05BF8606889
S35100001C7800AC214600F0B6F828462146324600F021F806B0BDE870407047000010B5DFF8301084680968D1F884118C420DD3B4FBF1FC0268436812EB0C0243F100030CFB01F1611A026043608160BDE81A
S35100001CC410407047F004FF1F70B50468D1F800C045684B6814EB0C045D41146055608368DFF83000D1F808C00068D0F88461A6EB0C00834238BF03EB0C0007D3601C45F100011060ACEB060051601818FF
S35100001D109060BDE870407047F004FF1F40BA704700BA704780F311887047000010B5DFF82420002412688C60D2F87CC1A0FB0C2300FB043304FB0C330A604B60BDE810407047C046F004FF1F10B5002223
S35100001D5CDFF882308A60D3F804C00C46BCF1010F08D1DFF872201268B0FBF2F200200A6048602CE0DFF86220BCF1020FD2F800E012D1DEF87C314FF0000CA0FB032100FB0C110CFB031110464FF47A72B2
S35100001DA8002314F0FBFF2060616012E0DEF87C214FF47A7CBCFBF2FC0CFB02F2C3F800C0B2F57A7F04BF01225A60CCD002215960D9E7BDE810407047C046BC06FF1FF004FF1F00002DE9F0410D46DFF841
S35100001DF464100024D1F80080D8F87C11A0FB016700FB047704FB0177304639464FF47A72002314F0C5FF28606960304639464FF47A72002314F0C2FFD8F88461A0FB062300FB043312F5FA7001FB0633B2
S35100001E4043EB04014FF47A72002314F0ABFFA860BDE8F0417047C046F004FF1F10B503F00FF8044608B900F065F92046BDE8104070470000032962D910F0010203D0002200F8012B491E10F0020203D085
S35100001E8C002220F8022B891E8B09002214E0026042608260C260026142618261C261026242628262C26202634263826300F13C0C4030CCF800205B1E002BE8D1C1F383020F2A36D8DFE802F035322F2C54
S35100001ED8292623201D1A1714110E0B08002240F8042B002240F8042B002240F8042B002240F8042B002240F8042B002240F8042B002240F8042B002240F8042B002240F8042B002240F8042B002240F8DE
S35100001F24042B002240F8042B002240F8042B002240F8042B002240F8042B11F002021CBF002220F8022B11F001011CBF0021017070470000032A40F2B38000F0030C01F003039C4540F0AC8010F00103E1
S35100001F7004D010F8013B01F8013B521E10F002032DD030F8023B21F8023B921E27E0036801F13C0C0B604368403A4B6083688B60C368CB6003690B6143694B6183698B61C369CB61036A0B62436A4B624E
S35100001FBC836A8B62C36ACB62036B0B63436B4B63836B8B6300F13C031B6840304031CCF80030402AD5D202F03C03202B1AD849D2102B0ED880F05680082B07D8042BC0F0618000F05B80082B54D05BE0D3
S351000020080C2B4DD058E0182B03D83DD2142B3FD052E01C2B34D04FE0302B09D81CD2282B03D821D2242B23D046E02C2B18D043E0382B03D808D2342B0AD03DE03C2B3BD150F8043B41F8043B50F8043B57
S3510000205441F8043B50F8043B41F8043B50F8043B41F8043B50F8043B41F8043B50F8043B41F8043B50F8043B41F8043B50F8043B41F8043B50F8043B41F8043B50F8043B41F8043B50F8043B41F8043BCB
S351000020A050F8043B41F8043B50F8043B41F8043B50F8043B41F8043B50F8043B41F8043B02F0030242B103E010F8013B01F8013B1346521E002BF7D170470000844611F0010303D0491E535C00EB032C67
S351000020EC490805E013785078921C40EA032084440846491E0028F5D1CCF30F4050B1CCF30F0101EB000CCCF30F4119B1CCF30F0000EB010C604670474EF60851CEF200010A68086010467047DFF80C00B9
S35100002138DFF80C300068C06B1847C046F004FF1F8B21000000000000DFF83C00DFF83C10DFF83C204FF008033BB140F8042B41F8042BA3F10103FFF7F7BFEFF3088080F30988EFF3148040F0020080F351
S35100002184148814F015BD80F30888704780E100E080E200E0FFFFFFFF38B5A0F1100CFA2820D80CF00303DD004EF200134901CEF2000301F0E0012CF0030E03F5407401FA05FCFF21A94054F80E3023EA24
S351000021D001014CEA010144F80E1012B100F00AF804E000F01DF801E00C2000E00020BDE838407047A0F11003FA2B0DD8012103F01F0001FA00F241F600705909C1F6FF70C0EB8100026001E00C2070475A
S3510000221C00207047A0F11003FA2B0ED8012103F01F0001FA00F24EF20011CEF20001580901EB8000C0F8802001E00C20704700207047000008B510B90020C04306E003689B6913B92C21C160F6E7984703
S35100002268BDE80840704700000FB408B503A820F00300001D00900022DFF81810039B02A8D24300F035F9029900220A70BDE8084004B07047A12200000B685A1C0A6018707047000070B5054600200C4633
S351000022B4164615B90020C04322E0AB690BB1012A13DD2868D0F814C0BCF1000F02D12C20E860EFE7002B284602D0491C521E01E021463246E04700280ADBA96941B1002ED1BF0020E96921700021C4BFDC
S35100002300A961401CBDE87040704700000FB408B5012000F0E7FE02A921F00301091D00910022DFF81410029BD24300F0E5F8BDE8084004B07047C0467D23000008B54FF0000C10B90020C04314E04B1E41
S3510000234C02D05B1E03D005E0806810600BE01168816008E00368DB69002B08BF40F6092C01D0984784466046BDE80840704700001CB5044611B90020C04311E00B689A6912B92C20C860F6E700AA107032
S351000023989B69084600A901229847012818BF4FF0FF342046BDE81C4070470000F8B50646DFF88A000D46046804F5177002F0FEFAD4F8787204F51E7012E0B968324601E0521C491C92F900C0BCF1000F60
S351000023E404D091F900300BB19C45F3D091F9001011B13F688742EAD104F5177002F068FB04F51E70874208BF002017D0202003F0B3F8044690B1102103F012F92760FB685BB1204631462A46984730B1A4
S3510000243001F080FC204603F0C5F9002000E02046BDE8F8407047F004FF1F000038B5054610B90020C0430BE00168096911B903F0B1F9F6E788470446284603F0ABF92046BDE83840704700002DE9F843F3
S3510000247C089C00258146884617461E46002CB8BF002408E0681C874204DD30464946C047864202D16D1CA542F4DB2846BDE8F843704700002DE9F0410F46804616461D46002401210EE0611C8E4208DDA0
S351000024C84146B84795F9001081420CBF0121002100E00121641C6D1C95F9000008B10029EBD100B1641E2046BDE8F041704700002DE9F84F9AB0019000200025249E8B4690461F460390B2F1FF3F08BFEA
S351000025146FF000480FE040B90398B0F1FF3F08BF4FF0FF35284600F052BC6D1CA84502DD0199D847039017F9010B40B22528EAD197F9000040B2252804D16D1CA845F2DD7F1CEDE720200D900020089022
S3510000256007900990069004904FF0000A04210C900590002223E02B2808DC16DA23281DDC20281BDB14D0232815D017E0302815DC2D2813DB02D0302804D00FE001200C907F1C0CE030200D90FAE70120AB
S351000025AC0990F7E701200890F4E701200790F1E7012297F9000040B208B1002AD5D000220B922A2805D1361D301F00687F1C0B900FE00A2306E00B9A40B25A43801830387F1C0B9097F9000042B2302AA4
S351000025F801DB392AF1DD97F9000040B24FF0FF392E281DD17F1C97F9000040B24FF000092A2805D1361D301FD0F800907F1C0FE00A2306E040B209FB03F280187F1CA0F1300997F9000042B2302A01DB81
S35100002644392AF1DD12A8029038467A1C90F9004017463CB9681C804503DD01992520D8470390F2E1B4F14C0018D01C3802D0001F08D017E092F900400021571C682C08BF012106E092F900400221571CFB
S351000026906C2C08BF032104BF971C92F9014003E092F900400421571C002000230E90642C26DC80F25A804E2C0DDC80F2BC81492C00F3BE81432CC0F2BB8137D0442C4CD0492C4AD0B4E1582C0FDCB4F14D
S351000026DC4F0000F1AF81DFE810F01B015D01AD01AD013900AD014300AD01AD016201632C1ED09FE16F2C09DC80F20A81692C01DC2DD097E16E2C00F0908193E1702C02DC00F041818EE1782C00F38C8107
S35100002728732CC0F2898113D0752C1BD0782C00F03B8181E1361D301F006812A90870C0B208B901200E904FF0000981F8019003E0361D301F0068029020200D900020079079E10123B9F1000FC4BF012074
S351000027740690002B54D003292CD10836A6F1080000680F90301F0068109080F000020F9880F0000010430CBF0120002040B205900F9A0020121A109A824108DA0F9A4FF02D0A821A0F92109A90411090A0
S351000027C059E0099810B14FF02B0A54E00898002851D04FF0200A4EE021B9361D301FB0F9000009E0012904D1361D301F90F9000002E0361D301F00681190119800280CBF0120002040B20590119800280A
S3510000280C04DA40424FF02D0A11902EE0099800B1D3E7089848B3D6E719B9361D301F00881CE0012903D1361D301F007816E0022900D110E003290ED10836A6F1080000680F90301F0068109080F00002E7
S351000028580F9880F00000104304E0361D301F0068119000280CBF0120002040B2059000200A90032932D14BF2B3610020C0F6E051CAF2647008E00F9A121A0F92109A8A4110920A9A521C0A920F9A121EAD
S351000028A4109A72F10002F0DB0020009012AA0F981099521C142300F0FBFA12A80A994078C9B24018C0B212A9487039289EBF12A8401C02901FD90A38C0B24870312118E04CF60020C3F69A3005E011996D
S351000028F0091A11910A99491C0A9111990029F6DB084602990A22002300F06CFA12A801780A98C0B2091812A8017023E7B9F1000FC4BF0120069003291BD10836A6F1080000680F90301F0068109080F0A9
S3510000293C00010F9880F0000008430CBF0120002040B20590002000900F981099029A162300F0AAFA1BE019B9361D301F008808E0012903D1361D301F007802E0361D301F00681190119800280CBF0120A9
S35100002988002040B20590119802990B22002300F025FA032004905EE00123361D301F006840E0012001230490B9F1000FC4BF012006900498401C049040B2049003291AD10836A6F1080000680F90301F48
S351000029D40068109080F000010F9880F0000008430CBF0120002040B2059000930F981099029A102300F05CFA2FE019B9361D301F008808E0012903D1361D301F007802E0361D301F0068119011980028E2
S35100002A200CBF0120002040B2059011980299082200F0D8F913E0361D301F006805607CE5681C804503DD01992046D84703900398B0F1FF3F0CBF4FF0FF30681CB9E102990E98091803E00E98491C401C87
S35100002A6C0E9008780028F8D10B980028BCBF00200B90B9F1000FB8BF4FF0000908DB732C01D0532C04D10E984845C8BFCDF838900024B9F1000F02D10B98002843D0069890B9B9F1000F0FD00E98484562
S35100002AB80CDD029912A8814201BF0E98A0EB09010298401808BF0290CDF838900698D0B10B98484515DD0E988145C4BF0B98A0EB090402DC0B990E980C1A059880B9079870B1049803280BD10E9881459A
S35100002B04C8BF641C06E0002404E00B9810B101460E980C1ABAF1000F00D0641E079830B1059820B90498641E032800DA641E002CB8BF00240C98002840F0D4800698002847D001985946A8EB0502202363
S35100002B500094FFF791FC2D18BAF12B0F05D0BAF12D0F02D0BAF1200F0AD10120009001985946A8EB05024AF30703FFF77DFC2D180798DFF8563228B30598DFF852A208BB0498401E02D0401E06D00CE041
S35100002B9C01985946A8EB0502534603E001985946A8EB0502FFF77EFC0DE00E98A9EB0000002809DC0120009001985946A8EB05023023FFF753FC2D18D3E00D98302841D1BAF12B0F05D0BAF12D0F02D08E
S35100002BE8BAF1200F0AD10120009001985946A8EB05024AF30703FFF73BFC2D180798DFF8D23110B30598DFF8CE91F0B90498401E02D0401E06D00CE001985946A8EB05024B4603E001985946A8EB0502EE
S35100002C34FFF73CFC0AE0002C09DC0120009001985946A8EB05023023FFF714FC2D18009401980D9B5946A8EB050297E0009401980D9B5946A8EB0502FFF704FC2D18BAF12B0F05D0BAF12D0F02D0BAF118
S35100002C80200F0AD10120009001985946A8EB05024AF30703FFF7F0FB2D180798DFF83E91DFF83631002800F076800598002840F072800498401E02D0401E08D00CE001985946A8EB05024B46FFF7F2FB5C
S35100002CCC62E001985946A8EB0502F7E70120009001985946A8EB05023023BAE7BAF12B0F05D0BAF12D0F02D0BAF1200F0AD10120009001985946A8EB05024AF30703FFF7B5FB2D180798002831D005980B
S35100002D1878BB0498DFF8BA30401E02D0401E09D00DE00198DFF8AE305946A8EB0502FFF7BBFB1DE001985946A8EB0502F7E7069828B10E98A9EB0000002800DC07E0069878B90D98302802D1002C0ADC58
S35100002D64FFE70120009001985946A8EB05023023FFF780FB2D18069858B10E985946A9EB000000900198A8EB05023023FFF772FB2D180E98A8EB0501401C0E908842C8BF0E9101980E9A029B5946FFF7D1
S35100002DB07FFB2D180C9800283FF4BFAB01985946A8EB050220230094FFF756FB2D18FFF7B4BB1AB0BDE8F84F7047D704FF1FD404FF1F00002DE9F84384B007460E46002000A900AC154608700B2A13D12C
S35100002DFC4FF00108601C07E007F00703303300F8013BFF1008F101089045F5DD91F90B0000F03300C87231E00A2A16D14FF0010904F101080EE038460A2113F0D7FF01F1300008F8010B38460A2113F0DB
S35100002E48CFFF074609F10109A945EEDD18E04FF0010EDFF84E10DFF84EC0601C0CE0002B07F00F0814BF1CF9088011F9088000F8018B3F110EF1010E9645F0DD00E06D1E60573028FBD02DB96D1C03E03C
S35100002E9460576D1E06F8010B002DF9DA04B0BDE8F8437047C04601720100F071010000002DE9F04788B088461746002200A9814600AC1E4610980A70162B17D10125601C0CE009F00702303200F8012BC6
S35100002EE04FEAD9094FEAE80249EA487990466D1C9D42F0DD91F9160000F03100887538E0142B18D1012504F1010A11E0484641460A22002313F078FE30300AF8010B484641460A22002313F077FE814660
S35100002F2C88466D1CB542EBDD1DE04FF0010CDFF85650DFF856A0611C11E0002809F00F0214BF1AF90220AA5601F8012B4FEA19194FEA281249EA087990460CF1010C9C45EBDD00E0761EA0573028FBD034
S35100002F782EB9761C03E0A057761E07F8010B002EF9DA08B0BDE8F047704701720100F071010000002DE9F0470746DFF8F0001C4600230E461546D0F80080002900D00AB90C2067E000203A464FF4806123
S35100002FC492F90090B9F13A0F08BF5B1C02D0B9F1000F03D0401C521C491EF1DC012B01D1012800D1E6E708F5177001F0E9FCD8F8780220B908F51E70002104F01BFAD8F8789208F51E7A10E0D9F80810D4
S3510000301038464FF4806213F0F5FB30B908F5177001F058FD4FF4206030E0D9F80090D145ECD108F5177001F04DFD2C2002F09EFA8146002808BF042020D00F2102F0FAFAC9E90276C9E904540898C9F814
S3510000305C18000998C9F81C000A98C9F820000B98C9F8240008F5177001F0A6FC08F51E70494604F0E1F908F5177001F025FD0020BDE8F0477047C046F004FF1F08B584B0DDF818C0CDF800C0DDF81CC04C
S351000030A8CDF804C04FF0000CCDF808C0DDF820C0CDF80CC0FFF76EFF04B0BDE808407047DFF81000DFF810300068012100F517701847C046F004FF1F054E0000DFF83C1080B20968052816D8DFE800F00E
S351000030F40C0F12030609D1F884027047D1F888027047D1F88C027047C869406F7047C869806F7047C869C06F704700207047C046F004FF1F7CB50646DFF8F0000568286C10F0010009D000200090019059
S35100003140012040F211113246002302F009F87EB9286C10F0010009D0002000900190022040F211110C22002301F0FAFF0C2054E0288B78B1286C10F0010009D0002000900190022040F211110D220023F0
S3510000318C01F0E8FF0D2042E0EC6901F0A7FF46F67130B168C7F27340814211D001F084FF286C10F0010009D0002000900190022040F211111E22002301F0CCFF1E2026E040F22920A060606821680160AF
S351000031D8486006F11000A063F16811F00801214602D001F0E3F901E004F028F9FDF72EF901F05CFF286C10F0010009D00020009000220190022040F21111134601F0A4FF0020BDE87C407047F004FF1FAF
S351000032247CB50646DFF8E6000D460468206C10F0010009D000200090019001204FF4897132462B4601F08AFF76B9206C10F0010008D00023009302204FF489711E22019301F07CFF1E204FE001F03CFF75
S3510000327046F67130B168C7F2734081420FD001F019FF206C10F0010008D00023009302204FF489711E22019301F062FFE4E7308B80B901F007FF206C10F0010008D00023009302204FF489710F2201936A
S351000032BC01F050FF0F2023E055B105E006F1100004F0DAF800F02AFF308B0028F6D105E006F1100004F0D0F800F020FF01F0E4FEFDF79DF8206C10F0010008D00022009202204FF489711346019201F06B
S351000033082BFF0020BDE87C407047F004FF1F00003EB50546DFF8F8000468206C10F0010008D00023009301204FF488712A46019301F012FF85B901F0B9FE206C10F0010008D00023009302204FF48871A9
S351000033540C22019301F002FF0C2058E0208B70B1206C10F0010008D00023009302204FF488710D22019301F0F1FE0D2047E001F0B1FE46F67130A968C7F27340814210D001F08EFE206C10F0010008D054
S351000033A00023009302204FF488711E22019301F0D7FE1E202DE00020A86009E005F1100004F060F800F0B0FE01F074FE01F08CFE288B0028F2D16868296801604860B4F82401401EA4F8240101F064FEB8
S351000033ECFDF71DF8284602F0E7F9206C10F0010008D00022009202204FF488711346019201F0A8FE0020BDE83E407047F004FF1F7CB50646DFF8FE000468206C10F0010009D0002000900190012040F288
S351000034380F113246002301F08FFEA6B1082E12D00C2000F073FC206C10F0010009D00020009000220190022040F20F11134601F07BFE002055E0208B88B10D2000F05EFC206C10F0010009D00020009049
S3510000348400220190022040F20F11134601F066FEE9E71C2002F034F9054670B9206C10F0010009D00020009000220190022040F20F11134601F052FED5E7112102F0C0F805F110000021EE6003F0B4FFF8
S351000034D046F67130C7F27340A86001F005FED4F81C0120B904F58E70002103F0A5FF04F58E70294603F0A6FF01F0DCFD206C10F0010009D0002000900190022040F20F112A46002301F024FE2846BDE858
S3510000351C7C407047C046F004FF1F000070B506460D4600B109B9002067E045F200720368CFF2864293429DBF436840F2E732934200205AD8002292B20A80DFF8B63003E00A88521C92B20A8092B203EBB9
S351000035688204D0F800C06468A445F3D253F82200ACEB000402F2B27082B210460A8000F067F80121342289B2DFF87E30504369801B1803E088B2401C81B269808AB253F822008442F6D2501E53F820007C
S351000035B4241A45F280112046C0F2010113F020FD45F2801180B2C0F201014143641A401CA88020464FF4616113F012FD80B24FF46161E8804843241A20463C2113F008FD80B23C2128814843241A6C81B3
S351000036007068A8810120BDE870407047C04698720100307201000000DFF808100968C1F884017047F004FF1FDFF808201268C2E962017047F004FF1FDFF808100968C1F874017047F004FF1FDFF8081099
S3510000364C0968C1F87C017047F004FF1F10B56421044613F0C3FB31B920464FF4C87113F0BDFB002904E0E10FC1EB847011EBB0700CBF01200020BDE81040704730B585B0DFF8881005460C68216C11F099
S3510000369801010AD0406842F201010090002001902B6801202A4601F057FD6868B0F57A7F0CD34FF47A7113F0A1FC29680818286068684FF47A7113F099FC6960284602AD2946FEF7C3FA01F003FD28462C
S351000036E404F5A87104F5AE72FEF796FA01F0E0FC206C10F0010009D00020009000220190022042F20101134601F028FD05B0BDE830407047F004FF1F70B5DFF8C6000668D6E95401401C41F10001C6E972
S35100003730540101F0D9FCD6F8881121B1D6F88C018847C6F8580106F5A870FEF7A3FAB6F87051002D39D0D6F868016D1C33E0D6E954CE426C836CB2EB0C01046873EB0E0138BF012107D3BCEB02017EEB8E
S3510000377C030134BF01210021494200291FDBB6F87011491EA6F87011416802680A605160816821F48072826012F480610AD022F480618160016CC26B0A605160826B1189491E118100F0B2FC20466D1E01
S351000037C8C9D101F073FCD6F8E00200B18047D6F8180300B18047BDE870407047C046F004FF1F000038B50546E8B1DFF84000046801F076FC04F5A87303CB2A4603C218681060D4F8881119B1D4F88C01C2
S351000038148847A860284604F5AE712A46FEF754FA01F046FC2846FEF733FABDE838407047F004FF1FDFF810004FF47A710068D0F87C01B1FBF0F07047F004FF1F08B5DFF81C000068D0F88811002908BF29
S35100003860002002D0D0F88C018847BDE808407047F004FF1F3EB500AC05462046FFF7B6FF20462946FEF76CF9BDE83E40704700002DE9F04107460E4600B109B90020B6E085892846B0F57A7F0ED34FF4F7
S351000038AC7A7113F09BFA7C8980B2214608187881A8B24FF47A7113F091FAB9817C8920463C280CD33C2113F089FA3D8980B2294608183881A0B23C2113F080FA79813D8928463C280CD33C2113F078FA00
S351000038F8FC8880B221460818F880A8B23C2113F06FFA3981FC88204618280BD3182113F067FAB98880B20818B880A0B2182113F05FFAF980B888012838BF00206BD37C8820460C280BD90C2113F052FA60
S35100003944398880B208183880A0B20C2113F04AFA7980398840F2B270814238BF3880DFF8B0504FF00D083888FFF774FE7C8800FB08F122466918515CBB888B4215D9581AB880501C84B220467C800C285F
S35100003990EBD90C2113F028FA398880B208187C88388020460C2113F01FFA7980DDE73C8840F6BF018C4288BF002028D8DFF85810A4F2B27451F8241034244443DFF84C00521E001950F82200091845F2E0
S351000039DC80105A1EC0F201005043FC88091822464FF4616050433D8909182A463C2050437C890918204609183160BD89284670600120BDE8F041704714720100987201003072010038B50546B8B1DFF844
S35100003A283400046801F05CFB04F5A87303CB2A4603C218681060D4F8881119B1D4F88C018847A86001F032FB2846FEF71FF9BDE838407047F004FF1F3EB5054638B100AC2046FFF7D9FF20462946FEF7AE
S35100003A7475F8BDE83E4070477CB50546DFF882000468206C10F0010009D0002000900190012042F206012A46002301F05FFB8DB90C2000F045F9206C10F0010026D0002000900190022042F206010C22A8
S35100003AC0002301F04DFB1BE0E66903CD06F1440203C22868106001F007FB304600F016F801F0E8FA206C10F0010009D00020009000220190022042F20601134601F030FBBDE87C407047F004FF1F00003D
S35100003B0C2DE9F041DFF8721004460968B1F8702101F5B47CEAB1D1F8683102F1010E15E0456C5F6C866CD3F84880EA1B76EB080238BF012206D37A1B78EB060234BF012200225242002A04DA9C461B681B
S35100003B58BEF1010EE6D1426800681060426001F5B4706146224603F043FCA06840F48070A060FCF76BFCBDE8F0417047C046F004FF1F00007CB50646DFF886000568286C10F0010009D000200090019006
S35100003BA4012042F204013246002301F0D7FA8EB90C2000F0BDF8286C10F0010027D0002000900190022042F204010C22002301F0C5FA1CE0EC6901F085FA304605F5A87104F14402FEF770F82046FFF799
S35100003BF08DFF01F05FFA286C10F0010009D00020009000220190022042F20401134601F0A7FABDE87C407047C046F004FF1F00007CB50646DFF88A000568286C10F0010009D0002000900190012042F217
S35100003C3C03013246002301F08DFA76B9286C10F001002CD00020009000220190022042F20301134601F07EFA21E0EC69304604F14401FEF773F801F039FA04F1440005F5A8710246FEF724F82046FFF755
S35100003C8841FF01F013FA286C10F0010009D00020009000220190022042F20301134601F05BFABDE87C407047C046F004FF1F00000CB4002000A90870DFF8141000AA0968C96989698A4238BF01200CBCCB
S35100003CD47047C046F004FF1FFEB50546DFF84C000C460768386C10F0010009D0002000900190012040F203212246002301F02EFAEE6D04B106B9EC65386C10F0010009D0002000900190022040F20321BC
S35100003D203246002301F01CFA3046BDE8FE407047F004FF1F7CB50646DFF860000468206C10F0010009D0002000900190012040F203213246002301F003FA218B002919BF606BC568E069C56D06B12DB909
S35100003D6C002919BF606BC660E069C665206C10F0010009D0002000900190022040F203212A46002301F0E6F92846BDE87C407047F004FF1FDFF808000068C069C0687047F004FF1F70B5DFF8521004467C
S35100003DB80D6808B9E8691FE0E96D884208BF05F1500019D001F08CF9D5F80801A0F16C06B5F8101109E0F068A04203D101F066F9304609E0F06EA0F16C060846491E0028F1D101F05BF90020BDE87040A0
S35100003E047047F004FF1F0000DFF814000168088B002819BF486BC068C869C06D7047C046F004FF1F70B50446DFF8BA00164605684FF6FE70B5F81031834228BF00204FD2A420086022B13046A421FEF72E
S35100003E5011F81CE0A42001F0E3FD064620B1204601F03EFEC6F88C0006B93AE0D6F88C000028304603D101F0A5FC002032E0242101F0E0FBD6F88C00252101F0DBFBD5F8140184B2D5F89001D5F818113F
S35100003E9C44EA0040F060002914BF6C3105F5847105F5847006F16C0203F0A0FA324605F58471641CA4B2D06E1346A0F16C0204B901248A4203D0D06880B2A042F1D0C5F81831C5F814413046BDE870406A
S35100003EE87047F004FF1F000008B5FFF75DFF002814BF806E0020BDE8084070473EB5DFF8B81005460C68C068C0F30F41D4F8900181421FD0206C10F0010009D0002000900190012040F201112A460023D9
S35100003F3401F014F91220FFF7FBFE206C10F0010038D00020009000220190022040F20111134601F003F92DE001F0C4F8A868022821D101F0A5F8206C10F0010009D0002000900190012040F201112A4688
S35100003F80002301F0EDF81120FFF7D4FE206C10F0010011D00020009000220190022040F20111134601F0DCF806E0284600F0BCF801F080F8FCF739FABDE83E407047C046F004FF1F2DE9F84F84B08B46CD
S35100003FCCDFF83C1102920D68C268D5F8001182469946DDF838808A4208D905F53071884204D00E20FFF7A0FE002084E0B8F1000F13D00F9EB6F5FE7F01D80220F2E7304603A942460023FFF709FF0746B2
S351000040180398361AB9F1000F14D0203E12E08068B0F5AC7F98BF4FF4AC700F3020F00F0606F1200003B93046002203A91346FFF7EFFE07460FB90A20CEE70320B860D7F88C400CB903983C18B9F1000F22
S351000040640ED02246A14620340423BAE80300A9E803005B1EF9D11068924640F0004010602046314600F042F8296ADAF80C00A1EB0011F96139628889B8F1000FB884DAF81400B8621EBFB86A40F0200058
S351000040B0B86288892146009002983246019038465346FDF7B5FCE0B1C7F868A0DAF800007866D5F884027867D5F88802B867D5F88C02F867C7F860B0B8F1000F08D13846394601F0A3FAD7F88C0039460E
S351000040FC01F09EFA384604B0BDE8F84F7047C046F004FF1F890846F26B12491CC7F2743201E040F8042B491EFBD170473EB50546DFF85C000468206C10F0010009D0002000900190012040F201112A4667
S35100004148002301F009F8E969606A4A68814288BF616202206A60A8601068286015604D60206C10F0010009D00020009000220190022040F20111134600F0EEFFBDE83E407047C046F004FF1F1CB5DFF860
S3510000419438000468206C10F001000AD0002000900190E2690120D2684FF48771002300F0D5FFE069D0F8840000B18047002000F027F9BDE81C407047F004FF1F2DE9FE430446DFF838020668306C10F002
S351000041E0010008D00023009301204FF483712246019300F0B5FFACB1D6F89001C4F30F4180B281420ED0306C10F0010008D00023009302204FF483711222019300F0A0FF1220F1E02046FFF7C3FD074629
S3510000422C18B106F1500188420DD1306C10F0010008D00023009302204FF483711222019300F088FFE6E706F59A7000F0B5FB00F045FFB968092913D100F026FF06F59A7000F032FC306C10F0010008D03A
S351000042780022009202204FF483711346019200F06BFFBCE0022907D1F06987421FBF78683968016048601FE001F48070002810D01AD07868396801604860B6F87001401EA6F87001B86820F4807040F038
S351000042C40300B8600AE011F4007007D07868396801604860B96B0889401E0881B86810F4806007D0386CF96B01604860B96B0889401E08810920B86000F0DAFE0025102406EB8500D0F81C1209B13846A3
S3510000431088476D1C641EF5DCF868F46985B2B86A10F020001AD13846002101F09DF9804611E03846414601F097F98146BC4204D0404606F1500101F079F9B84502D0404601F038FAC846B8F1000FEAD169
S3510000435C4FF00040F860B6F81001012801BF0120C6F814010020C6F8180109D0D6F81401A84205D9C6F81451386F6C38C6F81801386FF96E01604860B6F81001401EA6F8100106F59A7000F097FBA74289
S351000043A816D100F09DFE78683968016048603846FDF738FBB86A10F0200007D1384606F1500101F037F9384601F0F8F9FCF726F83846FDF727FBB86A10F0200002D1384601F0ECF9306C10F0010008D03E
S351000043F40022009202204FF483711346019200F0ADFE0020BDE8FE437047C046F004FF1FDFF8043000211847D14100002DE9FE438146DFF8FA00884605681746286C00241E4610F0010008D00092012042
S351000044404FF482714A464346019400F089FE18F0004012D01520FFF76DFC286C10F0010009D000200090019002204FF482710022152300F075FE002050E0B9F1000F2AD0B9F1FF0F11D91320FFF754FC2F
S3510000448C286C10F0010009D000200090019002204FF482710022132300F05CFEE5E7D5F89001814511D01320FFF73EFC286C10F0010009D000200090019002204FF482710022132300F046FECFE7002296
S351000044D8404639461346009600F02AF8064648B1C46800F0FDFD3046FFF71AFE00F0DEFDFBF797FF286C10F001000AD0002000900190EB690220DB6D4FF48271224600F023FE2046BDE8FE437047F00446
S35100004524FF1F000008B50023FFF778FFBDE80840704700002DE9FE430E46DFF86E1015461C460F6878B14FF00009D7F8A08101E008F12008D8F8001009B18142F8D131B94FF0000803E0B046B6694FF011
S351000045700109B8F1000F04D11020FFF7DBFB002012E007F59A7000F01DFA00950194F9694046C96832464B46FFF714FD044607F59A7000F097FA2046BDE8FE437047F004FF1F000010B503890A465C1CF5
S351000045BCD3690146D0F800C0B3F80EE007E0DCF81C30DB89734504D86146DCF800C0641EF5D102F00BFFBDE81040704770B5DFF8CA000221056843F6FC3028824FF4C57068820820286001206860E98115
S351000046080F216981A981D5F8A01109B900F0BEF90120C5F80401FDF735FA05F15001E961E88A4FF6FF766883E88A00248884D5F8900146EA0040C8600320886005F59470002102F0F5FE05F5B4700021A1
S3510000465402F0F0FED5F8A011002205E0C868844238BF0446521C2031086808B1B242F5D30320C5F80041C8F20000C5F8C0024FF4B070C5F8C802DFF82E000021C5F8D002DFF82600C5F8C402601CC5F822
S351000046A0CC0205F5847002F0C7FE0120C5F81401BDE870407047F004FF1FDA04FF1F115100000000DFF80810096808817047C046F004FF1F08B5DFF82010082809683CBF01EB8000D0F8900203D30C2006
S351000046ECFFF722FB0020BDE808407047F004FF1F70B50D46DFF8341006460C68082804D30C20FFF711FB00200DE000F0E7FC04F5247050F8264004B900E00DB940F8265000F0C2FC2046BDE870407047BF
S35100004738F004FF1F2DE9F041DFF85830541A07460E461546D3F80080082801D201B122B90C20FFF7EBFA0C2019E000F0C1FC08F5247050F82720B24203D100F09FFC19200DE0114603E00959B14200D160
S35100004784F5E70029F9D140F827602A6000F090FC0020BDE8F0417047F004FF1F2DE9F041DFF86430561A05460C464FF019081F68082801D201B122B90C20FFF7B9FA0C201FE000F08FFC07F5247151F805
S351000047D02520A24212D1A0594FF0000841F8250044F806800CE091199259A24201BF905908604FF0000842F8068001D0002AF2D100F058FC4046BDE8F0417047F004FF1FFEB5054640684FF448710F30A6
S3510000481C20F00F04DFF860010460DFF860012060DFF85C0120602046FDF71EFB04F5C873062203CD03C3521EFBD1C4F89441D4F8980120F00F00C4F89801FFF7C7FE00F03DFF08B100F098F8D4F8B8610F
S3510000486816B1D4F89C5118E0D4F89C01B0F5AC7F3CBF4FF4AC70C4F89C01D4F89C0100F11005284600F03AFF064610B9042000F07DF83046022100F0D1FE30462946FFF733FC7019401E20F00F00E0634B
S351000048B44FF4AC7000F024FF054610B9042000F067F82846012100F0BBFE05F5AC70401E20F00F01A1F16400606605F10F00216620F00F00A066616EDFF8A0000160FDF701F908B100F04CF804F5E070B4
S35100004900012100F07FFA04F59A70012100F07AFA0AF03AFA08B100F03DF8002200920192E16904F53070C9680123FFF74BFB054610B9042000F02EF82846FFF7F5FBD4F8A061002515E0706910F0010027
S3510000494C10D000950195E169B269C96830460023FFF732FB074610B9042000F015F83846FFF7DCFB203630680028E6D1FBF752FD0020BDE8FE407047F004FF1FAC740100A8740100C406FF1F1CB504461F
S3510000499800F0A6FBDFF81E000068006C10F0010008D000230093012040F201212246019300F0D2FBFEE7F004FF1F00003EB50546DFF804010468206C10F001000AD000200090102101900120C0F202018A
S351000049E42A46002300F0BAFB208B80B1206C10F001000AD000200090102101900220C0F202010D22002300F0A9FB0D205AE047F26D306969C6F67740814210D0206C10F001000AD00020009010210190D9
S35100004A300220C0F202011F22002300F091FB1F2042E000F051FBA869002810DCE16940F22B40886005F1080088634A6851F83C3B13605A6002F0EEFCFBF7F4FC01E0401EA86147F26D306969C6F6774043
S35100004A7C814211D000F018FB206C10F001000AD000200090102101900220C0F202011F22002300F05FFBCCE700F006FB206C10F001000AD0002000901021002201900220C0F20201134600F04DFB0020BC
S35100004AC8BDE83E407047C046F004FF1F3EB50546DFF8CC000468206C10F001000AD000200090112101900120C0F202012A46002300F032FB47F26D306969C6F67740814210D0206C10F001000AD00020B8
S35100004B140090112101900220C0F202011F22002300F01CFB1F203AE000F0DCFAA869002820DB288AF0B105F1080002F0A1FC3C38816811F480710ED0416802680A605160B4F87011491EA4F8701181688E
S35100004B6021F4807141F00301816000218163FFF7DBFAFBF75AFC02E0A869401CA86100F099FA206C10F001000AD0002000901121002201900220C0F20201134600F0E0FA0020BDE83E407047F004FF1FF2
S35100004BAC3EB50546DFF88E000468206C10F001000AD000200090142101900120C0F202012A46002300F0C6FA47F26D306969C6F67740814210D0206C10F001000AD0002000901421002201900220C0F221
S35100004BF80201134600F0B0FA00201BE000F070FAA8690028D8BF002502DD401EA861012500F04CFA206C10F001000AD000200090142101900220C0F202012A46002300F093FA2846BDE83E407047F00469
S35100004C44FF1F00003EB50546DFF8E8000468206C10F0010009D00023122100930120C0F202012A46019300F079FA00F03BFA47F26D306969C6F67740814211D000F018FA206C10F0010009D00023122169
S35100004C9000930220C0F202011F22019300F060FA1F2046E00020686119E005F1080002F0E9FB3C38816811F480710ED0416802680A605160B4F87011491EA4F87011816821F4807141F003018160FFF723
S35100004CDC25FA288A0028E2D1D4F8281104F594700CE0A94209D16868296801604860B4F83001401EA4F8300102E009688142F0D100F0D2F9FBF78BFB206C10F0010009D00022122100920220C0F2020187
S35100004D281346019200F018FA0020BDE83E407047F004FF1FDFF8043000211847494C0000FEB50746DFF8B0000E4604681546206C10F001000AD0002000900F2101900120C0F202013246002300F0F6F955
S35100004D7407F108000021BE6102F05CFB00F0B2F915BBD4F8281104F5947016E0B94213D100F08EF9206C10F001000AD000230F2100930220C0F202014FF48262019300F0D5F94FF482601DE009688142B8
S35100004DC0E6D104F59470394602F03CFB47F26D30C6F67740786100F06DF9206C10F0010009D000220F2100920220C0F202011346019200F0B5F90020BDE8FE407047C046F004FF1F08B500221346FFF722
S35100004E0C9DFFBDE80840704708B501220023FFF795FFBDE8084070470FB41CB5DFF850000068C469006C10F0010009D0049B04A80090012040F202212246019300F08AF900F04CF9A0680B280BD00B2017
S35100004E58A06004984121A0632046FEF73BFF606821680160486000F021F9BDE81C4004B07047C046F004FF1F2DE9F84307460E46814238BF0C202CD3DFF85C20081A1468DFF85820401CC008C4F8F4207F
S35100004EA4DFF8502000F101094FEA8900A26200F063FB054608B9042015E003214FF0030800F0BEFBA563E7622663A4F81C93A4F81E83002001E045F829004946A9F101090029F8D10020BDE8F843704785
S35100004EF0F004FF1FDD050000254E00002DE9FE438146DFF8E200884605681746286C10F0010009D0009200200190012040F602014A46434600F01CF9A86B20B91820FEF701FF002054E0E86A814502D317
S35100004F3C286B814510D91420FEF7F6FE286C10F0010008D000220092022040F602011346019200F0FFF8E6E700F0C0F8E86AA96BA9EB0000C00851F8206000E0366916B130684845FAD1002E18BF74685E
S35100004F8817D1142000F0BAFB2321064600F056FBE86AA96BA9EB0000C00851F820003061E86AA96BA9EB0000C00841F82060DFF83240C6E90098F76000F078F8286C10F0010008D000230093022040F64C
S35100004FD402012246019300F0C1F82046BDE8FE437047F004FF1F254E0000000038B5DFF8561004460D68A96B21B91820FEF798FE00201CE0E96A884202D3296B884201D91420F3E700F066F8E86AA96BB9
S35100005020201AC00851F8205000E02D6915B12868A042FAD100F03EF8002D14BF6868DFF80E00BDE838407047C046F004FF1F254E000000000020704738B5DFF8521004460D68A96B21B91820FEF764FE97
S3510000506C00201BE0E96A884202D3296B884201D91420F3E700F032F8E86AA96B201AC00851F8205000E02D6915B12868A042FAD100F00AF8002D14BFE8680020BDE838407047F004FF1F000008B5DFF80F
S351000050B82A000268D169486D60B1401E4865D069406D38B9108B10B1506B806800E0508BFCF724FEBDE808407047F004FF1F000010B5DFF820000468E069406D10B9E08AFCF714FEE169486D401C48654D
S35100005104BDE810407047C046F004FF1FDFF846000168D1F8B002401CC1F8B002D1F8B0020028F6D1D1F8B402401CC1F8B402D1F8B4020028EDD1D1F8B802401CC1F8B802D1F8B8020028E4D1D1F8BC027B
S35100005150401CC1F8BC02DEE7C046F004FF1F0000F8B584B01546DFF868200746D2F800C0DCF840201C460E4612F0010323D012F0200305D0DCF81C309B6A13F480431AD0401E012806D812F0020014D0E8
S3510000519C21F0FF00104210D0FFF7A0FF0A98009401900B983946029000200390002032462B4600F051F9FFF777FF04B0BDE8F8407047C046F004FF1F08B584B0DFF850000268106C10F0200004D0D06982
S351000051E8806A10F4804018D0116C11F0020014D011F4807011D0D2F8080270B1D3690121D8684FF481720090986801905869029000200390002000F04FF904B0BDE808407047C046F004FF1F08B584B0FC
S35100005234DFF850000268106C10F010001EBFD169506C814219D0D2F80802B0B15164106C10F0200004D0D069806A10F480400CD0D26905219068009050690190002002900390D368002000F021F904B0DE
S35100005280BDE808407047C046F004FF1F38B584B0DFF84C1004460B68D3F80812E1B11A6C12F0040118D012F0080104BFD3F87411884211D02046FFF79BFE05462046FFF7CBFE009000200190029003908F
S351000052CC0020032122462B4600F0F4F804B0BDE838407047F004FF1F08B584B00246DFF83C000368D3F80802A0B1196C11F0040010D011F0080004BFD3F87401824209D000200090019002900390002087
S351000053180421034600F0D0F804B0BDE808407047F004FF1F2DE9FC470446DFF82C010D46D0F80090D9F8400010F0010009D0002000900190012044F2170122462B46FFF703FFFFF7C5FE47F26E6061696B
S35100005364C6F66540814211D0FFF7A2FED9F8400010F0010008D000230093022044F2170139220193FFF7EAFE392064E0A06940EA0508208A002849D0A16804F10806002542E0A1F13C0ADAF828000F681B
S351000053B010F0800305D0DAF8A02002EA0800824205D093BBDAF8A00010EA08002DD048680968016048603089401E3081DAF8080010F4807012D0DAF80400DAF8001001604860B9F87001401EA9F8700180
S351000053FCDAF8080020F4807040F00300CAF80800CAF838505046FEF789FEDAF8A00000EA0801CAF8A010206A084028EA00083946B142BAD1C4F81880FFF73EFEFAF7F7FFD9F8400010F0010008D00022EF
S351000054480092022044F2170113460192FFF784FE0020BDE8FC477047F004FF1FF8B584B00E46DFF850100746096815461C46102828BF4FF4A06019D2D1F80802002808BF182013D0FFF72CFE0A98314691
S3510000549400900B982A4601900C98234602900D980390384600F00AF80446FFF701FE204604B0BDE8F8407047F004FF1F2DE9F8438946DFF8AE1090460E681F46D6F8081201EB8000446846F66740096892
S351000054E0C6F67740814218BF192041D114B940F202503DE0226812F4805008BF40F2055036D0A069A168C56AE06881420DD312F0010007D0E069854204BFE86AE061E86A206204E040F2035022E0481CF1
S3510000552CA06006F5A87303CB2A1D03C218681060FEF788F9E860281D06F5AE710246FCF7BFFB6168481C60602960C5E904980898AF61E861099828620A9868620B98A862A5610020BDE8F8437047F0048D
S35100005578FF1F00003EB50546DFF854000468206C10F0010009D0002000900190012041F219012A460023FFF7DFFDD4F8F022284604F15001012300F0F9FA0546206C10F0010009D00020009001900220C7
S351000055C441F219012A460023FFF7C8FD2846BDE83E407047F004FF1F7CB50646DFF854000D460468206C10F0010009D0002000900190012041F21A012A460023FFF7AEFD284604F150013246012300F0AF
S35100005610C9FA0546206C10F0010009D0002000900190022041F21A012A460023FFF798FD2846BDE87C407047F004FF1FC968001F01807047002808BF002002D0801E018001207047DFF80C000068D0F8FA
S3510000565CF002C06A7047C046F004FF1FF8B50746DFF862000029046804BFD4F8F052EE6803D00C3908684D680E18FFF72FFD6A692B6912E0F868318980B281420BD100E092680AB1B242FBD3B24204D03A
S351000056A8FFF704FD06F10C000CE0306836189E42EAD32D68D4F8F002EE688542E1D1FFF7F5FC0020BDE8F8407047F004FF1F000008B5DFF82400026802F54870C2F8F002D2F8982100F13001521A00F0FA
S351000056F413F90020BDE808407047C046F004FF1F7CB50446DFF854000568286C10F0010009D0002000900190012041F2160122460023FFF71BFDD5F8F022204605F150010023002400F034FA0646286CE5
S3510000574010F0010008D00094022041F21601324600230194FFF704FD3046BDE87C407047F004FF1F7CB50646DFF854000C460568286C10F0010009D0002000900190012041F2170122460023FFF7EAFC8E
S3510000578C204605F1500132460023002400F004FA0646286C10F0010008D00094022041F21701324600230194FFF7D4FC3046BDE87C407047F004FF1F7CB50446DFF84C010568286C10F0010008D0002385
S351000057D80093012041F2150122460193FFF7BCFC8CB90120FEF7A2FA286C10F0010008D000230093022041F2150101220193FFF7ABFC012080E0A4F10C06746846F27050A168C6F66D40814211D0382095
S35100005824FEF786FA286C10F0010008D000230093022041F2150138220193FFF78FFC382064E0E8693189C06880B281421CBF4FF6FF70814204D00320FEF76AFA032055E0FFF740FC606963690BB19E429F
S351000058700ED232681846B118994201BF19685118316099680CBFB160B360666100210CE081688E4200D309B9012106E0E161FFF709FCFFF721FCE069DFE7B9B132688368B118994201BF196851183160E8
S351000058BC816806BF8968B160B36002688118B14201BF316851180160B1680CBF816086606069A0616069E06160692062E0686062E068A062FFF7E0FB286C10F0010008D000220092022041F215011346EA
S351000059080192FFF729FC0020BDE87C407047C046F004FF1FFEB50746DFF898000E4604681546206C10F0010009D0002000900190012041F2140132462B46FFF70DFC701920F00F0106F10F0020F00F02FD
S351000059543961FA60FA62881A10600020906057607A61BA61FA613A62FFF7BCFBD4F8E40220B904F53970002101F05CFD04F53970394601F05DFDFFF793FB46F27050C6F66D40B860206C10F0010009D0D7
S351000059A0002000900190022041F214013A460023FFF7D6FB3846BDE8FE407047F004FF1F7CB50646DFF854000D460468206C10F0010009D0002000900190012041F2130132462B46FFF7BCFBE1692846B2
S351000059EC3246012300F0D8F80546206C10F0010009D0002000900190022041F213012A460023FFF7A7FB2846BDE87C407047C046F004FF1F3EB50546DFF854000468206C10F0010009D00020009001906D
S35100005A38012041F212012A460023FFF78DFBE169D4F8F0222846012300F0A8F80546206C10F0010009D0002000900190022041F212012A460023FFF777FB2846BDE83E407047C046F004FF1F7CB5064628
S35100005A84DFF854000C460568286C10F0010009D0002000900190012041F2110132462346FFF75CFBE969204632460023002400F077F80646286C10F0010008D00094022041F21101324600230194FFF7F3
S35100005AD047FB3046BDE87C407047C046F004FF1F7CB50446DFF854000568286C10F0010009D0002000900190012041F2100122460023FFF72DFBE9692046D5F8F0220023002400F047F80646286C10F0DF
S35100005B1C010008D00094022041F21001324600230194FFF717FB3046BDE87C407047C046F004FF1FFEB50546DFF858000C460768386C10F0010009D0002000900190012041F21F012A460023FFF7FCFAE6
S35100005B6800260096FA69D7F8F0322846214600F081F80446386C10F0010008D00096022041F21F01224600230196FFF7E5FA2046BDE8FE407047C046F004FF1F2DE9F8438846174646F270519268C6F691
S35100005BB46D4100251E468A4201D0382056E000F10C09B9F1100F38BF4FF0100909F10F0020F00F09FFF786FA786942E0B861FFF767FAFFF77FFABC697869844208BF25462068484533D3A0EB0902102AAD
S35100005C0021BF04EB090144F809204F60A06823BF8860A160C4F80090814638BFA168786984420CBF7961A9607869B861F8613862F8687862B862D8F80C002081002060816760F86A844288BFFC62FFF7E1
S35100005C4C33FA2EB104F10C00A9F10C01FCF70CF904F10C0009E0A06825460028BAD1FFF723FA0420FEF760F80020BDE8F84370472DE9F8438846174646F270519A68C6F66D411E468A4201D0382056E09F
S35100005C9800F10C09B9F1100F38BF4FF0100909F10F0020F00F09FFF71BFAA8F10C05706905EB09043EE0B061FFF7F8F9FFF710FAB06900F110010268A94232D88118A1422FD32B1AA2EB0901C91A0360B0
S35100005CE4102921BF05EB090245F809105660816827BF9160826089448268C5F80090AA607169B161F1613162F1687162B162F968298100216E606981F16A884288BFF062FFF7C6F9089820B14046A9F1A6
S35100005D300C01FCF79FF8404608E080680028BED1FFF7B8F90420FDF7F5FF0020BDE8F843704700002DE9F047DFF8AA1004460968D1F8F851002D4BD0D0F89070002617E0FA682AB1D2F898103889081AA9
S35100005D7CC2F89800386806E0D0F80080C672143000F030FD40460028F6D138463F69066006618682002FE5D10020C4E9240028686E68471C24E0B18A46F6675081421ED135681AE0A868D5F8049005F12B
S35100005DC8100A00F101080EE0DAF81000A04209D19AF80A0030B99AF80B0018B90AF1140000F002FDCA44B8F10108EDD12D68002DE2D11C367F1ED8D1BDE8F0477047F004FF1F00002DE9F84F0E46DFF840
S35100005E14021207460C689346D4F8F881B8F1000F04D11820FDF784FF0020EEE010B940F21670F7E7A0F114052B8946F667518B4200D0F4E7A97A09B9E97A01B1EFE7C2F30F23002BD4F8901106D1CBB253
S35100005E604188C9B241EA0321418006E08B4204D000F0BEFC4FF4E260D6E7C2F3070ABAF1000F01D13846F3E7D8F8180000EB4A19B9F81400504518BF4FF00009B9F1000F05D1384600F0A4FC40F213707E
S35100005EACBCE7FFF71BF9B9F80A1021B1B9F80800884280F09880B9F81600012840F08780D9F80C008168C9B2072904D0052930D1816B51452DD105F11401C0F89C102861816811F480710ED0416802686C
S35100005EF80A605160B4F87011491EA4F87011816821F4807141F003018160FEF709F9D9F8181011B1D9F81C0088474EB1208B002840F06E80E1690D208860FAF793FA67E0FAF777FA64E0B979002211F00A
S35100005F441F0332D0D0F89CA0BAF1000F2DD011F010030AD19AF806C01CF0100325D10CF00F0301F00F018B421FD2C0F89C702861AAF1140500202861BAF802000122834513D0C1B2D8F8180000EB411937
S35100005F90B9F80A1059B1B9F80800884207D3FFF789F8504600F024FC40F217703CE74846294600F033F8D9F80C1021B1D1F89800401CC1F89800D9F8181011B1D9F81C008847CEB1208BB8B9A8E7484680
S35100005FDC2946002200F01CF8D9F8181071B1D9F81C0088470AE0FFF75FF840F21770FDF79BFE05F1140000F0F5FB11E7FFF754F80120BDE8F84F7047C046F004FF1F000038B5046824B900224A600A601E
S35100006028016039E091F81AC01CF0100300D132B100220C604A600268516001602DE01CF00F0523D00023A44608E09CF81A2002F00F02954205D86346DCF800C0BCF1000FF3D103B9E4E7BCF1000F01BF68
S3510000607442684A6000220A6003BF4268116041604B601EBFC1F800C01960CCF8041006E042684A6000220A604268116041600289521C02810120C872BDE83840704700003EB5DFF8541005460C68216C83
S351000060C011F001010AD0808840F212410090002001906B8801202A46FFF742F86A8828460121FFF793FE0546206C10F0010009D0002000900190022040F212412A460023FFF72EF82846BDE83E40704796
S3510000610CF004FF1F7CB5DFF8541004460E68316C11F001010AD0808840F21141009000200190638801202246FFF714F86288204600210025FFF764FE0446306C10F0010008D00095022040F211412246F6
S3510000615800230195FFF700F82046BDE87C407047F004FF1F2DE9F84F8B464FF0000ADFF81812C3F800A016460A680746118B1D4631B10D240D20FDF7D1FD2C600020F8E0D2F8F881B8F1000F02D1182441
S351000061A41820F2E7D2F81C90002843D1D9F8900000B955E0FEF796FFD9F89800C0B90720C9F80800C9F83870C9F89CA016B9FAF743F907E0022E584602D1FDF7D5FC01E0FDF74AFCD9F89CA00020C9F883
S351000061F09C00C7E0D9F890201BE01089C0B1401E108111680B681360002B07BF0020506000205860D26822B1D2F89800401EC2F898000020C87201F1140AC1F81090A9E01269002AE1D1A5E0C0F3070AA2
S3510000623C0112D2F89001814202D1BAF1000F04D14FF4E2644FF4E2609BE7D8F8180000EB4A14A08A504504D040F2137440F213708FE7E06830B1484504D040F2127440F2127086E7FEF732FF20890028EB
S3510000628864D1E06810B94FF0000A77E00520C9F808000020C9F838A0C9F89C0016B9FAF7D9F807E0022E584602D1FDF76BFC01E0FDF7E0FBD9F89CA0BAF1000F1CBFBAF80220BA4241D0208900283ED054
S351000062D4D8F81810D0B201EB4015698911B1288988422ED2AAF114010A8946F66750824202D040F2167026E028460122FFF78CFEE96821B1D1F89800401CC1F898002089401E208122681168216000296D
S3510000632007BF0020606000204860E16821B1D1F89800401EC1F898000020D07202F1140AC2F8109005E040F21770FDF7F3FC4FF0000A4BE7401E2081226811682160002907BF0020606000204860E16866
S3510000636C21B1D1F89800401EC1F898000020D07202F1140AC2F81090FEF796FE5046BDE8F84F7047F004FF1F70B586B00446DFF8A6000D460668306C10F0010009D0002000900190012040F20B412246BB
S351000063B82B46FEF7D1FE45B1284603AD2946FBF7C7FC20462946022202E0204603A9002202ABFFF7C7FE029B044673B96CB9306C10F0010023D0002000900190022040F20B41224640F2147317E0306C52
S35100006404002B00F001000AD198B1A08840F20B410090A068224601900220638807E040B1002000900190022040F20B412246FEF795FE204606B0BDE870407047C046F004FF1F00002DE9F8438846DFF8E3
S35100006450161181460D6817461E46D5F8F841082805D240F20570FDF765FC002077E02CB900F0A8FAD5F8F84104B9F4E7FEF734FE236822699A4212D36568002246F6675004E0A98A814203D11C35521CF4
S3510000649C9A42F8D39A420AD1FEF706FE40F20270DBE7501C20611C20616850430D1846F66750A882A5F810904FF00009A5F81290FEF7F2FDC5F80090C5F80C90C5F80490A5F80890A5F80A9017B9A5F8B2
S351000064E8168005E0002E06BF4FF6FF70E882EE820898B8F1000FA86109D02846414600F031F8288918B90020A8820420A7E708986F820A281ED1FEF7E3FDA2680AB9A56015E02B8A108A984224BF6A607C
S35100006534A5600FD2516808E0088A98423CBF0A46496802D35560696001E00029F4D109B95560E560FEF7ACFD2846BDE8F8437047C046F004FF1F00002DE9F8438146008A8846233020F00F0505FB01F0B5
S351000065801F30FFF7BFF80746D8B30C21FFF75AF800233B607D6007F11F0020F00F06C7F80880FE60344608F1010C46F6675201210CE023602281A172E372C4F80C902361BCF1010F82BF601920600446D6
S351000065CCBCF1010CEFD1FEF789FDD9F800003860D9F80C00C9F800702060B9F808004044A9F80800B9F80A004044C9F80C60A9F80A00FEF759FDBDE8F84370472DE9FC418046DFF85C000F460468164649
S35100006618206C1D4610F0010008D000920193012040F2034142463B46FEF796FD052000904046394632462B46FFF702FF0546206C10F0010009D0002000900190022040F203412A460023FEF77FFD284684
S35100006664BDE8FC417047C046F004FF1F2DE9F8438146DFF8EA00884605681746D5F8F8411E462CB900F09CF9D5F8F84104B91CE0FEF728FDB9F1000F1BD1A069082300F58072D4F814C007E0918A98B269
S351000066B0814218BF814603D120325B1C6345F5D9B9F1000F0FD1FEF7F5FC40F21170FDF731FB002041E06069814504D3FEF7EAFC40F21B70D5E7B9F1000F04D1FEF7E2FC4FF4E260CDE7A06900EB4913ED
S351000066FC988A484500D1E0E7A3F8149000211960596019611981DF82A3F80A8008989E61D861012F10D1EA69DA60D2F89000002807BFC2F89030C2E92531D2F89400036118BFC2F8943000E0D960FEF77B
S35100006748B5FCD5F89001C1B2C9F3070040EA012080B2BDE8F8437047C046F004FF1F0000FEB50546DFF854000C460768386C10F0010009D0002000900190012040F209412A462346FEF7E8FC00260096DA
S351000067942846214601220023FFF768FF0446386C10F0010008D00096022040F20941224600230196FEF7D2FC2046BDE8FE407047F004FF1FDFF82020FF28126888BF002008D810B9D2F8900180B2C2B280
S351000067E0C8B240EA022080B27047C046F004FF1FFEB50446DFF8DA000768386C10F0010009D0002000900190012040F2054122460023FEF7A5FCA4F11405298946F66750814211D0386C10F0010009D095
S3510000682C002000900190022040F2054101220023FEF790FC0120FDF777FA41E0A87A78B1386C10F0010009D0002000900190022040F2054103220023FEF77CFC0320EAE7E87A88B1386C10F001000AD06A
S35100006878002000900190022040F2054140F21A720023FEF769FC40F21A70D6E701200024EE68A872EC72FEF723FCF0682860F5603089401C3081FEF701FC386C10F0010008D000220094022040F205415E
S351000068C413460194FEF74AFCBDE8FE407047F004FF1F00007CB50546DFF8E0000468206C10F0010008D000230093012040F204412A460193FEF732FCD4F8F80170B9206C10F0010008D000230093022009
S3510000691040F2044118220193FEF722FC18204CE0A98A46F66750814210D0206C10F0010009D000230093022040F2044140F203720193FEF70DFC40F2037036E0FEF7CCFB2989688981421ED1002028812D
S3510000695C6882FEF7A9FB286803E00668FEF72CFF30460028F9D100222A60AA82AA61206C10F0010007D00092022040F2044113460192FEF7E7FB002011E0FEF78DFB206C10F0010009D0002300930220FC
S351000069A840F2044140F204720193FEF7D5FB40F20470BDE87C407047F004FF1FFEB5DFF8DA010668306C10F0010009D00020009000220190012040F219411346FEF7BCFB06F5E070FDF7EAFF044678B15C
S351000069F4306C10F0010009D0002000900190022040F2194122460023FEF7A8FB2046C2E0D6F8F80190B106F5E070FEF759F8306C10F0010009D00020009000220190022040F219411346FEF791FBABE03C
S35100006A402020FEF79BFD074698B906F5E070FEF741F8306C10F0010009D0002000900190022040F2194104220023FEF779FB042093E00921FEF7E6FDD6F8A80110B90120C6F8A801D6F8A8111C2048435A
S35100006A8CFEF776FD0446A8B906F5E070FEF71CF8306C10F001000AD0002000900190022040F2194140F206720023FEF753FB40F206706CE00B21FEF7BFFDD6F8AC114FF6FF70814224BF4FF6FE70C6F8B4
S35100006AD8AC0104D201293CBF0120C6F8AC01D6F8AC01401C4001FEF745FD0546C0B906F5E070FDF7EBFF2046FEF760FE306C10F001000AD0002000900190022040F2194140F219720023FEF71FFB40F2BC
S35100006B24197038E00A21FEF78BFD786868B900203861B860F860D6F8A8013860D6F8AC0178617C60BD610024002547F27330C6F66550F861DFF84A00C6F8F871C6F8380206F5E070FDF7B4FF14B1204603
S35100006B70FEF728FE15B12846FEF724FE306C10F0010009D00020009000220190022040F219411346FEF7E4FA0020BDE8FE407047C046F004FF1F555D000000007CB50646DFF82E010568286C10F00100B1
S35100006BBC09D0002000900190012040F2074132460023FEF7C7FAD5F8F80190B91820FDF7ABF8286C10F0010009D0002000900190022040F2074100221823FEF7B3FA00206DE0B18A46F66750814202D128
S35100006C08B069052813D040F20370FDF78FF8286C10F001000AD0002000900190022040F20741002240F20373FEF796FAE1E7308970B9718A61B1F08A7289824200D338B9801A80B2814288BF014630460F
S35100006C54FFF78AFCFEF746FAF468ACB9FEF728FA40F20170FDF764F8286C10F001000AD0002000900190022040F20741002240F20173FEF76BFAB6E72068F0603089401E3081FEF70DFA0021A172E17244
S35100006CA0288B002812BF2161E86920610021E1822183308AA0826020A076286C10F0010009D000910191022040F2074104F114020023FEF745FA04F11400BDE87C407047C046F004FF1F00002DE9F047F3
S35100006CEC8146DFF886000068D0F8FC61002E38D047F27420F168C7F26100814231D134682DE047F2742A04F12C05C7F2610A23E06868504522D1A868EF6800F1010817E0B968D9F80C00814204BF3868C9
S35100006D38A0420DD1FEF7D4F9206938602761E068401CE0603968B86808187860FEF7AEF9A0683F18B8F10108E4D12D68002DD9D12468B442CFD1BDE8F0477047C046F004FF1F00003EB50546DFF854003D
S35100006D840468206C10F001000AD000200090052101900120C0F208012A460023FEF7DEF9284604F1500100F0B9FA0546206C10F001000AD000200090052101900220C0F208012A460023FEF7C9F9284643
S35100006DD0BDE83E407047C046F004FF1FFEB50446DFF8FA000768386C10F0010009D000200090019001204FF0081122460023FEF7AFF9A4F10C05AA682E686968B018814211D0386C10F001000AD00020B8
S35100006E1C0090019002204FF0081140F606020023FEF798F940F606004FE0F86D82421EBFF869C06882420FD0386C10F0010009D000200090019002204FF0081103220023FEF780F9032038E0FEF740F9AD
S35100006E6847F27420316BC7F26100814213D0FEF71DF9386C10F001000AD000200090019002204FF0081140F601020023FEF764F940F601001BE00024AC60306928603561F068401CF0602968A8680818DE
S35100006EB46860FEF7FDF8386C10F0010008D00022009402204FF0081113460194FEF746F90020BDE8FE407047C046F004FF1F0000F8B5074647F27420C7F26100486001F11F0020F00F040E4615468A60E3
S35100006F00CC600EE0FEF7F0F839692160A06808186060F8683C61401CF860FEF7CBF8B868241828466D1E0028ECD1FEF7DDF8F86A3060FE62FEF7BEF8BDE8F840704700007CB50646DFF81E010568286CCB
S35100006F4C10F0010009D000230B2100930120C0F2080132460193FEF7FDF8D5F8FC417CB9286C10F0010009D000230B2100930220C0F2080118220193FEF7ECF8182069E047F27420316BC7F2610081428B
S35100006F980FD0286C10F0010009D000230B2100930220C0F208010C220193FEF7D5F80C2052E0706A022811D0286C10F001000AD000230B2100930220C0F2080140F607020193FEF7C1F840F607003DE0CB
S35100006FE47169F068814211D0286C10F001000AD000230B2100930220C0F2080140F608020193FEF7ABF840F6080027E0FEF76AF870683168016048602089401E2081FEF747F800203063F06A03E004689D
S35100007030FEF7C8FB20460028F9D13046FEF7C2FB0446286C10F0010009D000230B2100930220C0F2080122460193FEF781F82046BDE87C407047F004FF1F00002DE9FE430546DFF818018846046817463C
S3510000707C206C1E4610F0010009D00092012101930120C0F208012A464346FEF763F8208B98B10D20FCF748FE206C10F001000AD0002000900121002201900220C0F208011346FEF74FF800205EE095B927
S351000070C80C20FCF733FE206C10F001000AD0002000900121002201900220C0F208011346FEF73AF8E9E705F11B0020F00F0909FB08F04B30FEF702FB054678B9206C10F001000AD0002000900121002294
S3510000711401900220C0F208011346FEF71FF8CEE70721FEF78DFA28464946424600F02EF890B1206C10F001000AD0002000900121002201900220C0F208011346FEF706F82846FEF735FBB2E702206862F4
S35100007160EF612E62206C10F001000AD000200090012101900220C0F208012A460023FDF7EFFF2846BDE8FE437047C046F004FF1F2DE9F0410746DFF86E000E46D0F80080D8F8FC41154624B900F030F8EC
